:100000006F10D0491300000013000000130000001F
:100010001300000013000000130000001300000094
:100020001300000013000000130000001300000084
:08003000130000007300100032
:1000380000000000000000008E0B0000920B000082
:1000480000000000E21B00000000000000000000AB
:10005800E41B0000E61B0000000000000000000098
:10006800E81B000000000000EA1B00000000000080
:10007800EC1B0000EE1B0000F01B0000F21B000050
:10008800F41B0000F61B0000F81B0000FA1B000020
:10009800FC1B0000FE1B0000001C0000021C0000EE
:1000A800041C0000061C0000081C00000A1C0000BC
:1000B8000C1C00000E1C0000101C0000121C00008C
:1000C800141C0000161C0000181C00001A1C00005C
:1000D8001C1C00001E1C0000201C0000221C00002C
:1000E800241C0000261C0000281C00002A1C0000FC
:1000F8002C1C00002E1C0000301C0000321C0000CC
:10010800341C0000361C0000381C00003A1C00009B
:100118003C1C00003E1C0000401C0000421C00006B
:10012800441C0000461C0000481C00004A1C00003B
:100138004C1C00004E1C0000501C0000521C00000B
:10014800541C0000561C0000581C00005A1C0000DB
:100158005C1C00005E1C0000601C0000621C0000AB
:10016800641C0000661C0000681C00006A1C00007B
:100178006C1C00006E1C0000701C0000721C00004B
:10018800741C0000761C0000781C00007A1C00001B
:100198007C1C00007E1C0000801C0000821C0000EB
:1001A800841C0000861C0000881C00008A1C0000BB
:1001B8008C1C00008E1C0000901C0000921C00008B
:1001C800941C0000961C0000981C00009A1C00005B
:1001D8000000000000000000000000000000000017
:1001E8000000000000000000000000000000000007
:0801F8000000000000000000FF
:100200003D432A876373C3029377F700BDEFADE5E3
:10021000937606FF3D8ABA960CC34CC30CC74CC7F5
:100220004107E36BD7FE11E28280B306C3408A0622
:100230009702000096966780A6002307B700A306E2
:10024000B7002306B700A305B7002305B700A30432
:10025000B7002304B700A303B7002303B700A3022A
:10026000B7002302B700A301B7002301B700A30022
:10027000B7002300B700828093F5F50F93968500B1
:10028000D58D93960501D58D61B79396270097027A
:10029000000096968682E78086FA9680C1171D8FA9
:1002A0003E96E374C3F8A5B7011126CAB7640040AF
:1002B00022CC52C42E842A8A85451385048006CE1A
:1002C0004AC84EC656C23289EF1010771385048093
:1002D0008545B7040300B7690040EF10307285040C
:1002E000938A0980A6855685EF10307965DD1385E0
:1002F0000980014693050007B7040700B76900406D
:10030000EF10707693842408938A0980A685568519
:10031000EF10B07665DD13850980D285B70900102E
:10032000B7640040EF1030732299938909089384D1
:1003300004806313240537040010B76400401304DD
:10034000040813890480A2854A85EF10B07465DD26
:10035000138504808545EF10506CF2406244D2440E
:100360004249B249224A924A014505618280834549
:1003700004002685EF10306ECE852685EF10907133
:100380007DD505047DB7797122D43764004052CC05
:1003900056CA2E8AAA8A85451305048006D626D217
:1003A0004AD04ECE5AC85EC6EF10106913050480BD
:1003B000854537040300B7640040EF10306405043E
:1003C00013890480A2854A85EF10306B65DD1385A3
:1003D0000480054693051007B70403003764004006
:1003E000EF107068890413040480A6852285EF103D
:1003F000D06865DDB764004037090010938404803D
:10040000014413090904930BEAFFA6896315440309
:1004100037650040130505808545EF101060B25028
:10042000225492540259F249624AD24A424BB24B88
:10043000014545618280CA852685EF10B06579D572
:10044000338B8A0063968B0081454E85EF10D05E1A
:100450004E85EF10B0602300AB00050445BF0111CD
:100460009307300309464C001305C00A06CE231239
:10047000F1001D3D01C9B757000003A58736F240C2
:100480000561828013050005EF20002F99452800A3
:10049000DD3D75F10345B1000357C100B7070F00FB
:1004A00042057D8D931787002183D98FC207C183B1
:1004B0005D8DEF20D078B757000003A6073783A6DD
:1004C0004737EF208038B757000003A6873783A649
:1004D000C737EF208037B757000003A6073883A639
:1004E0004738EF201002EF30A00251BF01119307EF
:1004F000300309464C001305C00A06CE2312F10052
:10050000653301C9B757000003A58736F24005617E
:10051000828013050005EF20202699452800A53587
:1005200075F1834791000345A100B2071205C98FF9
:100530000345B1001375050F5D8DEF205070B7575F
:10054000000003A6073683A64736EF200030B757D2
:10055000000003A6873783A6C737EF20002FEF20C0
:10056000307B6DB73715030001118945130505D49C
:1005700006CE22CC23160100DD2409466C001305AB
:10058000800A1D3319C505442285F2406244056185
:1005900082801305C012EF20201EA14709466C007F
:1005A0001305100E2316F10001332A8469FD13058B
:1005B000C012EF20601CC9BF011122CC376400407B
:1005C0004AC84EC62E89AA8985451305048006CEE1
:1005D00026CA52C4EF1050461305048085453704DF
:1005E0000300B7640040EF1070410504138A0480D3
:1005F000A2855285EF10704865DD138504800146A1
:100600009305C00337040700B7640040EF10B045FE
:1006100013042408138A0480A2855285EF10F04544
:1006200065DD13850480CE85B7040700376400407C
:10063000EF1070429384440813040480A685228539
:10064000EF10B04365DD37040010B76400401304B9
:10065000040893890480A2854E85EF10B04365DDC0
:10066000CA851385048037040010B7640040EF107A
:10067000903E1304040813890480A2854A85EF1074
:10068000704165DD138504808545EF101039F24017
:100690006244D2444249B249224A014505618280FE
:1006A000011122CC376400404AC885452A891305C8
:1006B000048006CE26CA4EC6EF10103813050480FB
:1006C000854537040300B7640040EF10303305045C
:1006D00093890480A2854E85EF10303A65DD13853D
:1006E000048001469305C003B70407003764004047
:1006F000EF1070379384240893090480A6854E85F3
:10070000EF10B03765DDCA8513050480EF10B034F3
:1007100013050480854537040300B7640040EF10DB
:10072000F02D050413890480A2854A85EF10F0346A
:1007300065DD1385048005469305D0033704030067
:10074000B7640040EF103032090413890480A28599
:100750004A85EF10903265DD138504808145B7042A
:10076000001037640040EF10302D93840404130907
:100770000480A6854A85EF10F03165DD13050480FD
:10078000EF10D02DAA84854513050480EF10F028C2
:10079000F240624426854249D244B24905618280D2
:1007A0003715030041118945130505D406C64528B0
:1007B00091450145113513052003EF10F07B8D4560
:1007C0000145DD3B0145E93DB24075153335A000DB
:1007D00041018280397122DC26DA4AD84ED606DE03
:1007E0002A8924082944C149228532C62EC4050419
:1007F000453D2380A4001374F40F8504A2453246BE
:10080000E31434FF03478101814793168701E18692
:1008100063C70600834791010D8B8A07D98F231088
:10082000F9008347B1010347A101A207D98F03470C
:10083000C1012310F60081479376070481EA8347BC
:10084000D1013D8B920793F7073FD98FF250625445
:100850002390F500D2544259B259216182803971F6
:1008600052D456D22E8AAA8A8545214506DE22DC3C
:1008700026DA4AD84ED6EF10303885453705400085
:10088000EF107039B714014013040040F1490D49CD
:100890004C00138504C0231281004EC64AC4EF10D9
:1008A00040758567938707804C00138504C0231229
:1008B000F1004EC64AC4EF10C073B7070040231DB5
:1008C0008100376400403ECA0C089167130504801C
:1008D000231EF10056C8231C4101EF10C07E1305F2
:1008E00004808545EF10D00F130504808545EF1077
:1008F000B014F2506254D2544259B259225A925A08
:1009000021618280011122CC376400404AC84EC662
:100910002E89AA8985451305048006CE26CA52C4AD
:10092000EF10901113050480854537040300B76468
:100930000040EF10B00C0504138A0480A285528594
:10094000EF10B01365DD1385048001469305000D9B
:10095000B704070037640040EF10F01093842408B8
:1009600013040480A6852285EF10301165DD37045D
:100970000010B764004013040408138A0480A285A1
:100980005285EF10301165DD13850480CE85B704E4
:10099000070037640040EF10100C938444081304E0
:1009A0000480A6852285EF10500D65DDB704001088
:1009B000376400409384040893090480A6854E851B
:1009C000EF10500D65DDCA8513050480EF10B008E7
:1009D000130504808545EF105004F2406244D24470
:1009E0004249B249224A014505618280011122CC67
:1009F000376400404AC885452A891305048006CE1D
:100A000026CA4EC6EF1050031305048085453704EF
:100A10000300B7640040EF10607E050493890480F2
:100A2000A2854E85EF10700565DD138504800146B3
:100A30009305000D37040700B7640040EF10B002C3
:100A40001304240893890480A2854E85EF10F002D8
:100A500065DDCA851385048037040700B76400404C
:100A6000EF10607F1304440813890480A2854A852F
:100A7000EF10B00065DD1385048085453704030061
:100A8000B7640040EF108077050413890480A285C5
:100A90004A85EF10807E65DD138504800546930549
:100AA000100DB704030037640040EF10C07B8904C9
:100AB00013040480A6852285EF10207C65DDB70431
:100AC0000010376400409384040413090480A68551
:100AD0004A85EF10207C65DD13050480EF10007857
:100AE000AA84854513050480EF102073F240624408
:100AF00026854249D244B24905618280616541112F
:100B000089451305056A06C6993B93050008130538
:100B1000B006CD3B1305800CEF1010468145130540
:100B2000B006CD339D456545F13B99456945D93BB7
:100B300085457145C13BE1456D45E9338145130567
:100B40008003C93381451305A0066D3B814513051C
:100B500030024D3B93050008130570036533130500
:100B600050076935130780068547631EE5008545F4
:100B70001305B006413B81451305C00661339D4511
:100B8000654549338147B2403E854101828073000B
:100B9000203001A013578500B70702602380E700CB
:100BA0001375F50F2380A7008280B707026083C703
:100BB0000700411193F7F70FA307F1000345F10078
:100BC0004101828035711306C0038145C80006CFFC
:100BD00022CD26CB4AC94EC752C502C0130AC10056
:100BE00002C202C4EFF0CFE1714681455285EFF0B9
:100BF0002FE193098102714681454E85EFF04FE068
:100C0000854513050010EF10407D854513058006CE
:100C1000EF10807EB7140140F1770D44614993874E
:100C200037038A85138504402310F1004AC422C289
:100C3000EF10203C37250140930700788A85130583
:100C400005802310F1004AC422C2EF10803A856764
:100C50008A85138504402310F1004AC422C2EF1094
:100C60004039930700082310F1008A85C147138596
:100C700004403EC422C2EF10C0379305000813851C
:100C80000440EF10604385473EC6BD473ECA8567B6
:100C9000BED4C800916722D8BED8D2DCCEDE02C84E
:100CA00002CC02CE02D002D202D402D602DA02DC98
:100CB00002DE82C082C282C482C682C882CA82CE5A
:100CC00082CC82D082D282D682DAEF10002585458E
:100CD0000145EF102030FA406A44DA444A49BA49E3
:100CE0002A4A0D618280397122DC37340140231C8D
:100CF000A100231AB100130504C04C0806DE32C659
:100D0000231D0100231B0100EF10C0723246930720
:100D100000063ED00C109147130504C02312F102C7
:100D20002313C10223150102EF10C07C130504C078
:100D30008545EF10B00A130504C08145EF10500D32
:100D4000130504C08545EF10D00A130504C085457E
:100D5000EF101007F2506254216182800565011185
:100D600085451305858006CEEF1000699167231233
:100D7000F10037150140E1474C003EC6130505C0A0
:100D80008D473EC4EF10E02613054006EF10D01E3D
:100D9000130620039305F00813054006A937F24017
:100DA00005618280930740069375F50F63F4A700F1
:100DB0009305400637350140130505C06F10F00656
:100DC000239CA180B70700202398B7068280B7072D
:100DD00002601307A002A38FE7FE1357850023804C
:100DE000E7001375F50F2380A700135786002380B3
:100DF000E7001376F60F2380C7001307B002A38F16
:100E0000E7FE13D785002380E70093F5F50F2380D5
:100E1000B70013D786002380E70093F6F60F2380F0
:100E2000D7001307C002A38FE7FE8280411122C4BE
:100E300026C29306F00E935485001374F50F130623
:100E4000F00E8145014506C659371307000FB70656
:100E500002609307000FFD1723809600C2072380CE
:100E60008600C183EDFB7D17420741837DF3B240CD
:100E70002244924441018280411106C622C426C206
:100E8000F13D8933370402609147A30FF4FE313BF3
:100E9000293B213B93140501C180A204C2043133D4
:100EA000C180458D9315050137850000C18113056B
:100EB0008528EF20700813052003EF10F00B93072F
:100EC0006003A30FF4FE230004001306A003A30F86
:100ED000C4FE95472300F400930720FBA30FF4FE04
:100EE000B1462300D4002300D4002300040093075C
:100EF00030032300F4002300F400130770FBA30F5A
:100F0000E4FE230004001307B0FBA30FE4FE130369
:100F1000F00323006400130700FCA30FE4FE130793
:100F2000C0022300E400130720FCA30FE4FE0547E2
:100F30002300E400130730FCA30FE4FEB5482300B0
:100F40001401130740FCA30FE4FE13070002230063
:100F5000E400130760FCA30FE4FE0D472300E40048
:100F6000930500FDA30FB4FE930540FA2300B400DF
:100F7000930510FA2300B4008155A30FB4FE415825
:100F8000230004012300E400A5452300B40023004E
:100F9000E40041452300E4009305D0022300A400AF
:100FA0002300B400130730042300E400230064008E
:100FB0002300F4002300140139472300E4009304C4
:100FC0009002230094009308200323001401855805
:100FD000A30F14FF230004012300D4002300A40066
:100FE0002300E4002300E40029472300E400230059
:100FF000B4002300F400930750042300F4002300FE
:10100000C400D1472300F400E5472300F400930710
:1010100010032300F400930770032300F4009307E8
:101020001002A30FF4FEC547A30FF4FE13054006FC
:10103000EF1080740145DD3B3715014091651305C4
:1010400005C0EF102007A30F94FEB2402244924443
:1010500041018280011122CC4AC84EC652C456C2F8
:1010600006CE26CAAA892E84328A3689BA8A853360
:1010700063768902F2406244D2444249B249224A2C
:10108000924A0561828085045685C2042136C1805A
:10109000E37B9AFE050442044180D9BFCE84CDBFD4
:1010A00093D816001308000FB308184163E2A81A7A
:1010B0003308D840636EB818797122D406D6130469
:1010C00006FE26D24AD04ECE52CC56CA5AC85EC66A
:1010D00062C441461374F40F639BC6069386F50001
:1010E00013067500C2064206C1824182156AC531E7
:1010F00012048149130A8A38B70B0020C14AB3078A
:101100003401D29703C90700A14493178901E187ED
:1011100063DC070203D50B07FD14060993F4F40FF3
:10112000EFF05FA71379F90FEDF08509E39959FD09
:10113000B250225492540259F249624AD24A424B66
:10114000B24B224C4561828003D58181F1B7614663
:10115000639CC606938675011306B500C206420657
:10116000C1824182AD31930700183304F402196A39
:101170008144130B0003130A8A96370C00200D805C
:1011800093F7F40FE38664FB330794005297858B43
:1011900083490700914A91E3A14A01499397890144
:1011A000E18763D0070203550C0705098609137907
:1011B000F90FEFF03F9E93F9F90FE3912AFF8504B1
:1011C000C1B703D58181D5B7130600026391C60666
:1011D0009386F5011306F500C2064206C1824182DC
:1011E0001D6AF5361A048149130A8AB0B70B00202C
:1011F000930A0004B3878900D29703C90700A1446A
:1012000093178901E18763D1070203D50B07FD140A
:10121000060993F4F40FEFF0FF971379F90FEDF04F
:101220008509E39959FD29B703D58181CDB72254AA
:10123000B25092540259F249624AD24A424BB24BDE
:10124000224C378500001305452945616F20C04EAB
:101250008280557126DB4AD94ED7AA84B2892E895D
:10126000130600088145080822DDBAC1BEC306DFA7
:1012700052D556D35AD15ECF3684C2C5C6C7EFE029
:101280003FF813F779FFC147630DF700930700029A
:101290006389F90037850000CE851305052EEF2000
:1012A000A0499401228693054006080836C6EF201F
:1012B000206A13D719009307000F131B0701C16A97
:1012C000B38BE740135B0B010008338A3741938AE5
:1012D0000A808347040081EFFA506A54DA544A596D
:1012E000BA592A5A9A5A0A5BFA4B6961828063F7A3
:1012F0009B004E99420913590901814463762A01E2
:1013000056852D3601498144034604002685DA942A
:10131000CE86CA85C2046933C18005045DBF797178
:1013200085451305000806D622D4EF10C00E85456A
:101330004145EF10600C91472312F1008D473EC4E8
:101340004C00E147371501403EC6EF00904AA147E7
:101350002312F1004C0093078004371501403EC66C
:10136000EF003049F16737240040938707203EC8DB
:101370000C08B7070C00130504C03ECC02CA231E9C
:101380000100EF10E02A3705024085451305054AA4
:10139000EF00F033130504C08545EF100037B2505D
:1013A00022544561828039718545094506DE22DC7B
:1013B00026DA37040240EF10400213050449EF001B
:1013C000D016938741803EC4C1473EC6B724004033
:1013D000930700084C00938444C03ECC1305044995
:1013E0008D673ED426C202C802CA02CE02D002D203
:1013F00002D6EF00502A1305044AEF00101393871A
:1014000001833EC4930700403EC84C00930700028E
:101410001305044A26C202C63ED2EF00D027F2507E
:101420006254D2542161828001118545114506CE56
:1014300022CCEF00707C85454145EF00F07B896749
:101440002312F10041448D474C00371501403EC442
:1014500022C6EF00103A37150140930700084C00F0
:101460001305058022C62312F100EF009038F240E8
:10147000624405618280411122C4370402404AC09F
:101480002A891305044926C206C6AE84EF00B0259A
:1014900015ED370500200905EF00702513050449F7
:1014A0008145EF00D0221304044923262401A68598
:1014B0002285EF00102322858545EF005021054548
:1014C000B240224492440249410182800145CDBF8D
:1014D0008145B307B5008387070091E369BF8505A0
:1014E000C205C181FDB7011122CC2A843705024013
:1014F0001305054A06CE2EC6EF00F01E1307004066
:10150000098F83D6A1814207418301456384E602A6
:10151000B2459387A1810145138601839308F03F6B
:1015200083D607006388E6001318050113580801E5
:101530006366B800F240624405618280B29683C659
:1015400006003308A4002300D80083D607008506D0
:10155000C206C18263E6D8002390D7000505C9B74B
:1015600023900700E5BF3705024041111305054AE6
:1015700006C6EF005017930700403385A74003D7F6
:10158000A181420541816368E500198DB2404205A1
:10159000418141018280998F3E95CDBF01118545E2
:1015A0001305400606CE22CC26CA4AC8EF00D064F6
:1015B00037250140930480040D449307E0034C0059
:1015C000130505802312F10026C622C437190140F5
:1015D000EF00302285474C00130509802312F100EB
:1015E00026C622C4EF00F0208967938707044C00C9
:1015F0001305094026C622C42312F100EF00701F14
:10160000F2406244D2444249056182807971854545
:101610001305000406D622D426D24AD04ECEEF00BF
:10162000B05D3724014085679387078041498D4429
:101630004C00130504802312F1004AC626C48569B4
:10164000EF00301B9385098013050480EF0090267E
:101650004C0013050480231231014AC626C4EF0052
:101660005019130504808565EF00D024B250225430
:1016700092540259F2494561828059719305F07F75
:10168000014586D6A2D4A6D2CAD0EFF06FF3B786B2
:1016900000009386C635130600028145130520031A
:1016A0004D3E4164930504800145EFF06FF1EFE09A
:1016B0001FDB2A89EFE09FE3AA844A85EF10305FA1
:1016C00029464C102AC6EF2000072685EF10305E11
:1016D00029460C18AA84EF2000069305F4FF014563
:1016E000EFF00FEEB786000093864636414693052D
:1016F00000030145EFF0FFB59305007E0145EFF0D3
:101700002FEC3247B7860000938606374146930593
:1017100000047945EFF0FFB3B78600002687938673
:10172000463841469305F0057945EFF09FB2101019
:10173000930521021305E101EFF0CF890355E10183
:1017400029466C18EF10307F035521022946AC0062
:10175000EF10707E035501022946CC08EF10B07DD2
:101760009305F4FF0145EFF0AFE5B78600009386DF
:1017700086394146930540080145EFF09FAD93053A
:10178000007E0145EFF0CFE30357E101B78600008B
:101790009386863A4146930580097945EFF07FAB01
:1017A00003572102B78600009386463B41469305C6
:1017B000C00A7945EFF0FFA903570102B786000080
:1017C0009386063C41469305000C7945EFF07FA8CF
:1017D00013054006EF00507A378400001305C43C1F
:1017E000C5396DDD13054006EF0010793784000020
:1017F0001305C43DF1396DDD13054006EF00D077C8
:101800004810F93175DD13054006EF00F076378496
:1018100000001305C43E6D396DDD13054006EF0071
:10182000B0750818753175DD13054006EF00D074EA
:10183000378400001305044061396DDD130540064F
:10184000EF009073378400001305444151316DDD82
:1018500013054006EF00507268189D3975DD1305B9
:101860004006EF00707137840000130504428D318B
:101870006DDD13054006EF003070A800913975DD6D
:1018800013054006EF00506F378400001305C44273
:1018900081316DDD13054006EF00106EC8080D396B
:1018A00075DDB65026549654065965618280411103
:1018B00022C441641307F4FF9306F00E1306F00EE2
:1018C0008145014506C6EFF0EFF81305401FEF0014
:1018D000B06A01479306F00E1306F00E81450145EC
:1018E000EFF04FF71305401FEF0010691307048056
:1018F0009306F00E1306F00E81450145EFF08FF5CB
:101900001305401FEF0050671307007E9306F00E8B
:101910001306F00E81450145EFF0CFF31305401F8C
:10192000EF0090657D479306F00E1306F00E81459B
:101930000145EFF02FF21305401FEF00F063224442
:10194000B240014541016FF06FCE130101BE114558
:10195000232E1140232C8140232A9140232821410A
:1019600023263141EF003016EF00B05E716513059C
:101970000520EF00306383A58180378400001305C4
:101980000430EF10705BEFF07FC1EFF03FC8EFF075
:10199000AFCE13058002EFF0EFC013054006EF0055
:1019A000B05D37890000EFE0FFBB631D050C378990
:1019B0000000EFE0FFDE6310050E37890000EFF056
:1019C000EF936313050E3785000013054534EF10C0
:1019D00050680945EF00300FEF00B05771651305EF
:1019E0000520EF00305C83A5818013050430371497
:1019F0000140EF107054EFF01F9BEFF05F9237251E
:101A0000004005469305000C130505C0EF00B051DA
:101A1000EFF09FA113050480014693050008792D7E
:101A20000546896537150140512D1305803EEF00AD
:101A3000B054B53D5145EF0030541569B7890000E9
:101A400013040480EFF07FC3EFF0FFB1AA840DC54B
:101A5000835709F61306E03F814513052100231043
:101A6000F100EFE0EFF9A6850A85EFF0DFA78A85A0
:101A70001385C934EF10504C0546930500082285A4
:101A8000352DC9B713050931EF10104B1305800C24
:101A9000EF00904E09BF1305C931EF10F04913054F
:101AA000800CEF00704D31B713054933EF10D0486B
:101AB0001305800CEF00504C19B7B717024098433C
:101AC000B706FFF841111367170098C3D8433706CC
:101AD0000200758FD8C39843B706F7FEFD16758FC1
:101AE00098C39843B706FCFFFD16758F98C3D8437B
:101AF000B70681FFFD16758FD8C337079F0098C7BB
:101B000002C402C69843C166558F98C38567B7164D
:101B10000240938707FA9842718F3AC62247050719
:101B20003AC4324701E72247E317F7FEB7170240EE
:101B30009C431397E7006350070A85473EC6324728
:101B400085476318F708B72702409843B706C1FFD7
:101B5000FD161367070198C39843719B98C3984378
:101B60001367270098C3B7170240D843D8C3D84398
:101B7000D8C3D84313670740D8C3D843758FD8C399
:101B800037F7FF1F0327C77093161701D84363C6A3
:101B90000604B7063D00558FD8C3371702401C43D3
:101BA000B7060001D58F1CC3B717024098439316A0
:101BB0006700E3DD06FED843B7160240719BD8C329
:101BC000D84313672700D8C32147DC42B18BE39E7B
:101BD000E7FE4101828002C69DB7C1666DBF01A0CC
:101BE00001A001A001A001A001A001A001A001A0ED
:101BF00001A001A001A001A001A001A001A001A0DD
:101C000001A001A001A001A001A001A001A001A0CC
:101C100001A001A001A001A001A001A001A001A0BC
:101C200001A001A001A001A001A001A001A001A0AC
:101C300001A001A001A001A001A001A001A001A09C
:101C400001A001A001A001A001A001A001A001A08C
:101C500001A001A001A001A001A001A001A001A07C
:101C600001A001A001A001A001A001A001A001A06C
:101C700001A001A001A001A001A001A001A001A05C
:101C800001A001A001A001A001A001A001A001A04C
:101C900001A001A001A001A001A001A07390123435
:101CA00097F1FF1F938101BD17E1012013018135D9
:101CB000177500001305C59897E5FF1F93858534B8
:101CC0001386818163FAC5008322050023A0550095
:101CD00011059105E3EAC5FE13858181938541C312
:101CE0006377B500232005001105E36DB5FEFD42C5
:101CF000739002BCFD4273904280B76200009382F1
:101D0000820873A0023097E2FFFF9382223393E2AE
:101D1000320073905230EFF05FDA97020000938246
:101D200002C373901234730020301C41416779174D
:101D3000F98F1CC123200500232205002324050060
:101D4000B707024023260500138787006317E500C5
:101D5000D8431367F700D8C382801387C70163167F
:101D6000E500D8431367070FFDB713870703631810
:101D7000E500D8438566938606F0558FE9BF138743
:101D800047046315E500D843BD66C5BF13878705C3
:101D90006316E500D843B7060F00C5B71387C7061B
:101DA0006316E500D843B706F000C1BF13870708E4
:101DB0006316E500D843B706000FC1B71387874005
:101DC0006319E50003A747401367F70023A2E74024
:101DD00082801387C7416317E50003A74740136755
:101DE000070FEDB793870743631BF500B707024062
:101DF00003A747408566938606F0558FC1BFB70796
:101E00000240138747446316E50003A74740BD66B9
:101E1000EDB7138787456317E50003A74740B7066B
:101E20000F00E1BF1387C7466317E50003A74740CC
:101E3000B706F000D9B7138707486317E50003A773
:101E40004740B706000F55BF138707496319E500E0
:101E500003A7474D1367F70023AAE74C8280138737
:101E6000074A6317E50003A7474D1367070FEDB750
:101E70001387074B6319E50003A7474D85669386D3
:101E800006F0558FD1BF1387074CE319E5FC03A774
:101E9000474DBD66FDB71C4161773D0794517D8F6D
:101EA0009C45D58F9449D58FD449D58F944DD58FE6
:101EB000D44DD58FD451D58F9455D58FD98F1CC182
:101EC000DC455CC19C411CC5DC415CC582801C4179
:101ED00089C593E717001CC1828041677917F98F84
:101EE000DDBF4CC182804841420541818280931709
:101EF000350063D70700B707024023A2A7408280BE
:101F00009317250063D70700B707024023AAA74C01
:101F10008280B7070240C8C3828014455C4158459F
:101F20000328C502D58FD98F1849370600A0D98F4D
:101F30005849D98F184DD98F584DD98F1851D98FED
:101F40005851D98F1855D98F1859B3E70701D98F30
:101F500018410A073A961CC2A1476396F6001C4234
:101F600093E707041CC254598C4E9C42CD8FCC423F
:101F70009205CD8F8C46A205CD8FCC46C205CD8F64
:101F80008C4AD44AD205CD8FE206D58F5CC29167C8
:101F90006319F802145D904E9C42D18FD042120614
:101FA000D18F90462206D18F904AD44A5206E2063B
:101FB000D18FD58FB70600A09386461036971CC3E5
:101FC0008280B70700A0938747103E97B70700109D
:101FD000FD17F5B7B70700A00A053E951C4189C556
:101FE00093E717001CC18280370710007917F98F1B
:101FF000D5BF9C4513F7070113F8F70001C7D84177
:102000003368E80083D5050013F7F50F39C318418D
:102010008146854E3D4F930F800293028004214EEE
:102020003396DE00B3F8C5006311160393982600BB
:1020300033131F011343F3FF3377E300B318180181
:1020400033E7E800639FF70550C98506E39AC6FDAC
:1020500018C11307F00F6375B70454412146854E2C
:102060003D4F930F800293028004414EB398CE00FF
:1020700033F715016392E802131726000117331393
:10208000EF001343F3FFB376D3003317E800D98E84
:10209000639DF701232A15010506E319C6FD54C106
:1020A0008280E39457FA10C94DB7E39757FE23286F
:1020B0001501DDB70CC982804CC9828019C20CC9D8
:1020C00082804CC98280397122DC26DA2A848354CA
:1020D000450068082EC606DED52A925737470F00FE
:1020E0001307072433D7E702C204C18093F404FC2A
:1020F000C204C180B24561651305056A1316070164
:102100004182D18C2312940083560400C206C182FE
:10211000F99AC206C1822310D40094416366D506A1
:102120008606B3D7D7029146139707014183BA8732
:102130006373D700914705064206C2074182C183F7
:102140002310C402231EF4008357040003D7450064
:1021500083D6A50093E717002310F40083570400EB
:10216000558FF250C207C18393F757BFD98F231001
:10217000F40003D7850083D7C500D254D98F231428
:10218000F40062542161828003D5650031667D16BA
:10219000631EC5020D46B386C602B3D7D702C20777
:1021A000C1839396470199E293E71700A166D58F03
:1021B0009306C0123307D7029306803E3347D702F7
:1021C0000507420741832310E402ADBF6546B3868D
:1021D000C602B3D7D7029166C207C183D58FD1B7E4
:1021E0008357050091C593E717002310F5008280FF
:1021F000C207C183F99BC207C183C5BF83570500CE
:1022000091C593E707102310F5008280C207C183B0
:1022100093F7F7EFC207C183FDB78357050091C558
:1022200093E707202310F5008280C207C18393F74C
:10223000F7DFC207C183FDB78357050091C593E758
:1022400007402310F5008280C207C18393F7F7BFD0
:10225000C207C183FDB72318B5008280035505016D
:102260001375F50F828093F7E50F19C293E71500F8
:10227000C207C1832318F5008280835745010355A7
:10228000850142055D8D6D8D220521810D8D1335F2
:1022900015008280411102C402C693D7C5012AC627
:1022A0003EC4A247A205A18199CBB247D1073EC641
:1022B000B247884341016D8D3335A0008280B2471B
:1022C000C181E107EDB723AEA180828037170240BC
:1022D0005C439146B18B6385D700A1466386D706E0
:1022E000B7177A00938707201CC1371602405C425B
:1022F00037070020130707009183BD8BBA9783C669
:1023000007001C41B3D7D7005CC15442A1829D8A0B
:10231000BA9683C60600B3D6D70014C55442AD8220
:102320009D8A369703470700B3D7E7005CC558423C
:102330003983937637001387C180369703470700A8
:10234000B3D7E7021CC982805C4354434167C98309
:10235000F98E37F7FF1F0327C770BD8B8907131648
:10236000170163480600454601476392C702C94703
:1023700039A809476389E7023D476388E702414777
:102380006388E702454601476393C700C14785E676
:10239000B746024083A60680C18A8DC6B7167A006A
:1023A0009386062025A00147D9B70547B547C5B78D
:1023B0000147BD47E9BFB7160240D4421396E60075
:1023C000E35E06FCB7163D0093860690B387D702FE
:1023D0001CC101DF1C41858301BF99C5371702402D
:1023E0005C4B5D8D48CB8280B7170240D84B1345BC
:1023F000F5FF798DC8CB828099C5371702401C4FF5
:102400005D8D08CF8280B7170240984F1345F5FFC6
:10241000798D88CF828099C5371702405C4F5D8DDA
:1024200048CF8280B7170240D84F1345F5FF798D0A
:10243000C8CF82808357050037370140930607C015
:10244000C207C1836300D504B7060040630CD50200
:10245000938606406308D502B716004013860680AF
:102460006302C502938606C0630ED50013070740BA
:10247000630AE50037570140930607C06304D5009F
:102480006317E50003D7250093F7F7F8D98F3717BF
:102490000040630DE500130707406309E50093F76B
:1024A000F7CF03D76500C207C183D98F2310F5008A
:1024B00083D745002316F50283D705002314F502C0
:1024C000B7370140138707C0630EE50093870740C5
:1024D000630AF500B7570140138707C06304E5009E
:1024E0006316F50083C785002318F5028547231A74
:1024F000F50082808357050265771307F7CFC2077F
:10250000C183BD9BC207C1832310F5028357050217
:102510008356450003D88500C207139606018356EB
:102520008501C18393F7F7FD758F83D6050041823E
:10253000A206558F83D6250042074183B3E60601E4
:102540009206D58FB7360140C207138806C0C183F3
:10255000630E050193860640630AD500B756014015
:10256000138806C0630405016311D50483D6A50052
:1025700093F7F7F703D8C5009206D58F83D64500A9
:10258000C207C183920693F7F7FBD58FFD7693863A
:10259000F63FF18E03D6E500C207C183336606011C
:1025A0000A06D18E1396060141822312C500231C10
:1025B000E50003D76500231CE5022310F5028280A5
:1025C0008357050091C593E717002310F50082801B
:1025D000C207C183F99BC207C183C5BF83574504A6
:1025E00091C52167D98F2312F5048280C607C58360
:1025F000DDBF8357050091C593E707082310F50059
:102600008280C207C18393F7F7F7C207C183FDB782
:1026100003578501FD779387F77FF98FA205CD8F4B
:10262000C207C183231CF5008280231CB50282806F
:1026300083560501F577FD17F58F83D6650039714F
:1026400022DC06DED58F03D7C5002318F50083569C
:10265000C500FD779387379FF58F83D645002A8481
:102660002EC6D58F83D68500D58F83D6A500D58F6E
:102670002316F50083574501C207C18393F7F7CFAF
:10268000D98F231AF5006808EFF05FC4B7470140FF
:1026900093870780B245631EF404A2578356C40093
:1026A0006547B387E702C206C186984163D5060431
:1026B00006070356C4004206B3D7E70213074006D5
:1026C0004186B3D6E702B3F7E702920663570602E4
:1026D0008E0793872703B3D7E70213F77700B36713
:1026E000D700C207C1832314F400F2506254216161
:1026F0008280925765B70A076DBF920793872703B9
:10270000B3D7E702BD8BD58FE9BF81C98357C50019
:102710000967D98F2316F50082800357C500F97722
:10272000FD17F98FC5BF8357450109C6DD8D231AF3
:10273000B500828093C5F5FFFD8DD5BF93F5F51FDC
:102740002312B5008280035505006D8D3335A0003E
:10275000828083A7818037177A0013070720B3D7B9
:10276000E70293F7F70F2381F1821307803EB387C7
:10277000E7022390F1828280B7F700E0414798C3D7
:1027800003D7018281463306A70290CBD4CB98436E
:102790001367170298C3D843058B75DFD843799B1D
:1027A000D8C38280797122D42A84116585451105A8
:1027B00006D6EFF07FC4930700202312F1003715EF
:1027C00001408D473EC44C00E147130505803EC6DD
:1027D000EFF03F8222C837440140B70708000C08D9
:1027E000130504803ECC02CA231E01009135130557
:1027F00004808545193FB250225445618280011101
:1028000026CAB744014022CC4AC84EC606CEAE897D
:102810003289014493840480634A2401F240624473
:102820004A85D2444249B249056182809305000439
:102830002685113F65DDB3878900838507002685DE
:102840000504C205C181DD3DC1BF39714AD813D924
:1028500045014ED652D456D29399C50006DE22DCED
:1028600026DA5AD05ECE1379F97F2A8A93D9C90025
:1028700093DAF501630D090E9307F07F6306F918EB
:102880001354D5018E09B36934013704800033E451
:10289000890093143500130919C08149814B13D75E
:1028A0004601139AC6001377F77FB285135ACA0000
:1028B00013DBF601630B07109307F07F6303F70444
:1028C0009357D6010E0A33EA4701130717C0B7071B
:1028D0008000B367FA00931536003A99814833C7F0
:1028E0006A01BD463A851308190063E83617176672
:1028F00000001306A6B48A09B29983A60900B2960D
:102900008286B367CA001309F97F6399071293E9B6
:10291000290081458948E1B701479307F07F3704D3
:10292000080081443204D20731807E075D8C598CC7
:10293000A285F250625426854259D254B259225A85
:10294000925A025BF24B216182805A853E84AE84AA
:10295000C68B8947638DFB0E8D47E38FFBFA854756
:102960002A87639EFB3881470144814465BF33E475
:10297000A90061C036C632C4638C092A4E85EF00B7
:10298000D04F2246B246AA87130755FF7544938459
:1029900087FF198CB399990033548A00336434014A
:1029A000B3149A0013D746011309D0C0139AC60076
:1029B0001377F77F3309F9408149814BB285135A68
:1029C000CA0013DBF601E31907EEB367CA00B1C70B
:1029D000630F0A22528532C4EF00304A22462A870A
:1029E000930655FFF547930587FF958F331ABA0075
:1029F000B357F600B3E74701B315B6003309E94012
:102A00001309D9C08148E1BD33E4A90001ECA14913
:102A100081441309F07F894B59B593E91900814529
:102A2000854875BD4E84AA84B1491309F07F8D4B4A
:102A3000BDB5914981440149854B95B593E939006C
:102A4000D2878D4869BD89475685E397FBF02A8771
:102A50009307F07F01448144F1B5C16E1386FEFFF8
:102A600093D6040113DE0501F18CF18D33869502B6
:102A70003383B6029358060133059E021A95AA982D
:102A8000B382C60363F36800F692C16F1383FFFF3E
:102A900033F5670093D30701B3F76800C2073373B8
:102AA00066003E933306950293D80801B387A602C9
:102AB000135F0601B3849302BE94FA94B38E760238
:102AC00063F3F400FE9E416A9307FAFF935F0401EB
:102AD000B376F400B3F9F4007D8EC1803384D5025F
:102AE000C209338FD401B299CE98B307DE02935E48
:102AF0000401B385BF02AE97BE9E330EFE0363F39F
:102B0000BE00529EC1679385F7FF33F6BE006D8C01
:102B10004206229693DE0E01B305D502769E3385DA
:102B2000AF0213D40501B386D302AA96A296B38F3F
:102B3000F30363F3A600BE9F41657D15B3F7A600BE
:102B4000C2076D8DAA97B3855800B3B93501FA97BE
:102B5000B2953384370133B6C500B30EC401338553
:102B6000CE0033343401B3B7E701C18F33BECE0199
:102B700013D406013336C5003E943366CE009394D9
:102B8000950032947E94B3E4640026049356750154
:102B9000B3349000DD8193179500CD8C558CDD8C7E
:102BA0009317740063DB070093D71400858893168E
:102BB000F401DD8CD58C058042899307F93F635978
:102BC000F00893F6740081CE93F6F4001146638802
:102BD000C60093864400B3B496002694B684931638
:102BE000740063D80600B70700FFFD177D8C9307BC
:102BF00009409306E07F63CFF60E93D6340093141A
:102C0000D4012604D58C318093F7F77F21BB328520
:102C100032C4EF00902693065501F14713070502D1
:102C20002246E3D1D7DC6115B317A6008145F9B37D
:102C3000EF00B02413075501F14593070502224622
:102C4000B246E3D5E5D461153314AA00814499BB9B
:102C500085469D8EB1E71309E941B3972401B3D4AA
:102C6000D40033192401B337F000B3649900DD8C2C
:102C700093F77400B356D40081CF93F7F400114654
:102C80006388C70093874400B3B49700A696BE84B8
:102C90009397860063D8070485470144814459B15E
:102CA00013068003E341D6CC7D46E356D6FA05569B
:102CB000B307F640930500023356F4006387B6006D
:102CC0001309E943B3172401DD8CB3349000D18C90
:102CD00093F67400014499CA93F7F40011468146B3
:102CE000E392C7FA139496003180F6068D80D58C56
:102CF00081470DB99307F07F0144814425B1428992
:102D00006DBD370710007D1701113373B70093D8DD
:102D10004601758F935ED60122CC26CA0E0393D44A
:102D200045019357D5010E0706CE4AC84EC693F803
:102D3000F87F130EF07F33E7EE0093F4F47F13D4A3
:102D4000F50133E36700131F3500FD82931E360043
:102D50006380C81993C61600B38514416305D41265
:102D60006351B018638B081AB70780005D8F6380CA
:102D7000C4599307800363C3B734FD4763C4B7489E
:102D8000930700028D8FB3D9BE003318F700B39EAE
:102D9000FE00336838013357B700B339D0013368C8
:102DA00038013303E340B3090F41B3373F01330622
:102DB000F3409317860063D30724370980007D19F9
:102DC00033792601630F092C4A85EF00100B130796
:102DD00085FF93070002998FB3D7F9003316E900F6
:102DE000D18FB399E9006344972A058F1306170022
:102DF000FD4663C4C63A13070002118FB3D6C9005B
:102E00003398E9003397E700558F33380001B369F1
:102E1000070133D6C700814493F7790081CF93F639
:102E2000F90091476388F6009386490033B836016C
:102E30004296B6899317860063D6071C1387140041
:102E40009307F07F05886306F720B70780FFFD171B
:102E5000F18F1398D70193D93900A6073368380149
:102E6000B1831377F77F9396C7005207B1827E0430
:102E7000D98EC18EF2406244D2444249B249428561
:102E8000B685056182806356B00A638A0812B70767
:102E900080005D8F6386C42D9307800363C7B718D6
:102EA000FD4763D1B73C138805FE93070002B35971
:102EB0000701638AF50093070004B385B740331711
:102EC000B700B3EEEE003338D0013368380195A275
:102ED000B367D7019385148099E393C61600630AFC
:102EE000D404D1E19387140093F7E77F6398071E1A
:102EF000B367E3013368D701639204166381073C2B
:102F000063150842131835009316D301135838007F
:102F100033E806019357330019A2B367D7016384DE
:102F2000071A9387F5FF638A073A638BC523BE852B
:102F300089B56398051C9386140093F7E67FC1EF6B
:102F4000B367E301639F0434638C0744B367D7011D
:102F5000639307460E051318D3010D813368A8004B
:102F6000935733006DA8B385984063960420B367E8
:102F7000E301638C07309387F5FF638807401305EF
:102F8000F07F6382A520BE859307800363C1B72AC3
:102F9000FD4763C7B73C930700028D8F3318F300DA
:102FA0003356BF00B317FF003368C800B339F000D1
:102FB0003353B3003368380133076740ADACB367B0
:102FC000D701638207109387F5FF638E071E638F17
:102FD000C52DBE85D1B59307F07F638BF606FA9EAB
:102FE00033B6EE01B307E300B2971398F70193DE0F
:102FF0001E00B369D80113D61700B68493F7790081
:10300000E39F07E09317D60113D839003368F8001F
:10301000A685935736001307F07F6380E506B20755
:10302000B18313F7F57F05883DBD3367D70133388A
:10303000E000B309E801B3B7E901338667009317ED
:103040008600E3DD07FA85049307F07F639BF4189D
:1030500005881307F07F8147014831B56390071059
:103060006300083C131836009317D7011358380033
:103070003368F800368493573700B367F800E9DB0C
:1030800001441307F07FB70708000148E9BB370682
:1030900080FF7D167D8E93F77900998CE39107D898
:1030A00095B74E85D92B13078501FD47E3D3E7D2AA
:1030B000130685FFB397C900814935B33368D7013B
:1030C00033380001CDB1131835009317D3011358CD
:1030D00038003368F8009357330035BFB309DF4138
:1030E0003309E34033363F013309C9409317890060
:1030F00063CA072033E82901E31608CC814701445D
:1031000039BFB385984063810414B70680009307E4
:10311000F07F3363D3006381F8209307800363CC8F
:10312000B722FD4763C9B72C930700028D8F331870
:10313000F300B356BF00B317FF003368D800B339AC
:10314000F0003353B300336838011A97B309D8013C
:10315000B3B7D9013386E700C684D5B5E31208F2C8
:10316000131835009317D301135838003368F8004B
:103170009357330019B7370580009307F07F336307
:10318000A300E393F8E00E061318D7010D8233680D
:10319000C800935737003684CDB505179306000253
:1031A00033D7E700630AD600930600043386C6408F
:1031B0003396C700B3E9C90033383001B369E8007A
:1031C0000146814425BDB309DF01B307E30033BFE6
:1031D000E9013386E701931786008544E3D007E2CF
:1031E0008944B70780FFFD17F18F13D7190013F833
:1031F0001900336807019399F701B3E9090113D660
:10320000170019B9138805FE93070002B359070187
:10321000638AF50093070004B385B7403317B700FE
:10322000B3EEEE003338D00133683801ADBE3363FE
:10323000E30133386000B3890E41B3B73E01330672
:10324000F740C6843684B5B6B367E30163870718D1
:103250009387F5FF638C071C9306F07F638ED50A76
:10326000BE8565BD930700028D8FB3D9BE003318AC
:10327000F700B39EFE00336838013357B700B33907
:10328000D001336838013A936DB3131836009317A1
:10329000D7011358380033E80701368493573700B5
:1032A0009DBBBDCB3367D701E31C07DC0E051318AC
:1032B000D3010D813368A800935733007DBBE30F22
:1032C00008E2131836009317D701135838003368F3
:1032D000F80036849357370099B3B309DF41B30739
:1032E000E340333F3F013386E7418544D9B41318A7
:1032F00035009316D3011358380033E8060193576D
:103300003300A5BBB389EE413306674033B93E01B4
:103310003309264136847DB40E061318D7010D8279
:103320003368C8009357370089BBB309DF41B3073F
:10333000E34033363F013386C7409317860063D797
:10334000070AB389EE41B3076740B3BE3E01338637
:10335000D7413684D1B43363E30133386000FDB321
:10336000138805FE93070002B3590301638AF50031
:1033700093070004B385B7403313B300336F6F0076
:103380003338E001336838017DB5B389EE41B307C6
:103390006740B3BE3E013386D7413684854411BCB5
:1033A000131836009317D701135838003368F80004
:1033B00093573700ADB1B309DF01B307E30033BF63
:1033C000E9013386E70193178600E3D907C2B707FF
:1033D00080FFFD177D8E854415B10E061318D701A9
:1033E0000D823368C8009357370035B133E8C90000
:1033F000E30608D021B1138805FE93070002B359F4
:103400000301638AF50093070004B385B7403313C3
:10341000B300336F6F003338E001336838013DB3D8
:1034200001441307F07FB707080035BCB309DF017B
:10343000B307E300B3BED9013386D70169BB41119D
:1034400006C622C426C205CD9357F541B3C4A700D2
:103450009D8C2A84268515249306E041898EA947F0
:103460007D8093F6F67F63CDA7022D47098FB3D7F2
:10347000E4005505B207B394A400B18329A0014428
:10348000814681478144B207D206B1837E04D58F3D
:10349000C18FB24022442685BE859244410182807C
:1034A0005515B397A400B207B1838144E9BF37062D
:1034B0008000135775019307F6FF1377F70F9305F5
:1034C000E007B3F6A7009357F50163FCE500930509
:1034D000D00963FAE500370500801345F5FF3E95F6
:1034E00082800145828093055009D18E63CDE5002D
:1034F000130660093307E64033D7E6003305E040A2
:10350000F5F33A8582801307A7F63397E600FDB7F7
:1035100093D645019397C50093F6F67FB183138642
:1035200016008E071357D5011376E67FFD815D8F58
:103530009318350035CE138806C89307E00F63DD76
:1035400007018147139597009306F00FDE0625814A
:10355000FE05558D4D8D82806355000B93176500D8
:103560000E07B337F000D98F93D8D801B3E717010E
:1035700013F777006301071013F7F7009146630311
:10358000D7009107370700047D8F75C71307180010
:103590001306F00F9376F70FE305C7FA9A07A58392
:1035A00013959700DE062581FE05558D4D8D828091
:1035B000B367170199EE85CF95479A07A5831395B1
:1035C000970093F6F60FDE062581FE05558D4D8D8D
:1035D0008280A5DBB7074000139597009306F00F94
:1035E000DE0681452581FE05558D4D8D8280814702
:1035F000139597008146DE062581FE05558D4D8D7C
:103600008280A5576348F804F94737068000B387DE
:1036100007417D45598E6351F504795733070741BA
:10362000130500023357E6006388A700938626CA75
:10363000B316D600B3E8D800B3371001D98F13F70B
:103640007700014815FB139757008546E34807F4B8
:103650008146A5B781468DB7938626C83397D80093
:103660003337E000B316D600B3D8F800B367D700FD
:10367000B3E7F800E9B7C28689B7C167637EF50290
:103680009307F00F1307000263ECA70097570000A1
:103690009387C7DEAA9703C507003305A74082803A
:1036A000218197570000938767DDAA9703C507001C
:1036B00061473305A7408280B7070001636EF500BC
:1036C000618197570000938767DBAA9703C50700BE
:1036D00021473305A7408280418197570000938797
:1036E000E7D9AA9703C5070041473305A740828061
:1036F000411122C406C61307E6FF930720022E8459
:1037000063FAE7002380050001442285B240224489
:1037100041018280A947631EF600635C05009307A0
:10372000D0022380F5003305A0408545A2953D22B7
:10373000E9BF8145E5BF6DBF39713EDA2ED232D483
:1037400036D63AD842DC46DE9387018122CC8043CC
:1037500026CA06CEAA8409C41C4C99E322852525D5
:103760000C4454102686228536C6EF003069F2409C
:103770006244D24421618280011126CA4AC806CE21
:1037800022CC4EC652C4AA842E8901C51C4D91E399
:10379000DD2B9C4C804499E32685F5239757000048
:1037A000938747E2631CF402C0408357C400A18B97
:1037B000B1C71C48A1C7FD59294A1C4483450900CB
:1037C000FD17B1E91CC463DE07062286A9452685DC
:1037D000412AFD576308F502294535A09757000097
:1037E000938747E06314F4008044C1B79757000003
:1037F000938747DBE31BF4FAC04445BFA2852685C7
:10380000052455D97D55F2406244D2444249B2491B
:10381000224A056182801CC4050963D70700184C41
:1038200063CBE700638945011C401387170018C06C
:103830002380B70059B7228626851D22E31F35F75E
:10384000D1B71C401387170018C029472380E70011
:1038500061B793870181AA85884339BF397122DC1A
:1038600026DA4AD8AA8432892E8413065002975544
:1038700000009385A5D0280006DEEF002077930690
:10388000E9FF93072002014763FED70023000400ED
:1038900001442285F2506254D254425921618280FF
:1038A0003287BE84B3F724030C1813061700B3063F
:1038B000C400AE9783C787FDA38FF6FEB3D724035A
:1038C000E3F024FF238006008147B306E4003306BB
:1038D000F740E3D0C7FC3306F40003C50600834578
:1038E000060085072300A6002380B600FD16C5B795
:1038F0001971A2DC86DEA6DA3284635B06009307C8
:10390000B0081CC17D55F6506654D65409618280BA
:103910003686930680202EC42ECC231AD1008145F2
:1039200019C09305F4FFFD572EC82ECEBA862C0081
:10393000231BF100AA84EF00B01DFD576355F5006D
:103940009307B0089CC061D0A2472380070065BFE1
:10395000938701813687B2862E86AA85884349BF20
:10396000011122CC26CA4AC806CE4EC6AA842E8988
:10397000328401C51C4D91E339219757000093878C
:1039800067C46319F406C0401C4C1CC48357C400B0
:10399000A18BC9C31C48BDCF1C4808409379F90FBF
:1039A0001379F90F1D8D5C486346F500A2852685C5
:1039B000652C2DE51C440505FD171CC41C40138710
:1039C000170018C0238037015C486389A70083571C
:1039D000C400858B81CBA9476316F900A285268593
:1039E00061240DEDF24062444A85D2444249B24915
:1039F00005618280975700009387C7BE6314F40067
:103A0000804459B7975700009387C7B9E31EF4F66F
:103A1000C0449DBFA285268521203DDD7D59D9B7B3
:103A200041119387018126C2844322C44AC006C63D
:103A30002A892E8489C49C4C99E32685A926975708
:103A40000000938727B8631CF402C0400317C4002A
:103A500093170701C18393F68700B5EE93F607012C
:103A60009DEEA5472320F900136707042316E40001
:103A70007D55B240224492440249410182809757C9
:103A80000000938727B66314F4008044C1B79757AA
:103A90000000938727B1E31BF4FAC04445BF918B24
:103AA0008DC74C5889C9930744046384F5004A853F
:103AB000CD2B232A04028357C4002322040093F74A
:103AC000B7FD2316F4001C481CC08357C40093E7BD
:103AD00087002316F4001C4881EF8357C4001307A6
:103AE000002093F707286385E700A2854A85852192
:103AF0008357C40013F7170005C75C48232404004C
:103B0000B307F0401CCC1C480145A5F78317C4003F
:103B100013F7070839DF93E707042316F40089BF7A
:103B2000898B014791E3584818C4F1BF83D7C5007A
:103B3000011122CC26CA06CE4AC84EC613F787000A
:103B4000AA842E8471EFD841634DE000B841634AE6
:103B5000E0000145F2406244D2444249B249056165
:103B6000828058547DD703A904009396370123A07F
:103B7000040063DD060670488357C400918B99C723
:103B80005C401D8E5C5899C33C401D8E5C540C50AB
:103B9000814626858297FD570357C400631DF500B3
:103BA0009440F54763E8D706B70740208507B3D7A9
:103BB000D700858BA5C31C48232204001CC0931783
:103BC000370163D80700FD576314F5009C4091E36B
:103BD00068C84C5823A02401ADDD930744046384D6
:103BE000F50026857D29232A0402A5B70C5001463D
:103BF000854626850297FD572A86E31FF5F69C40E9
:103C0000A5DF75476385E70059476394E70423A060
:103C1000240181B7136707042316E4007D551DBFF7
:103C200083A90501E38709F203A905008D8B23A071
:103C3000350133093941014791E3D84918C4E35AA2
:103C400020F11C540C50CA864E8626858297634903
:103C5000A0008357C40093E707042316F4007DBF38
:103C6000AA993309A940E1BF9C49B9CF011122CCDF
:103C700006CE2A8411C51C4D81E72EC62922B245E5
:103C80009757000093870794639BF5004C408397F8
:103C9000C50095C722856244F240056141BD975732
:103CA0000000938727946394F5000C44CDB7975791
:103CB00000009387278FE39CF5FC4C44C9BFF2407A
:103CC000624401450561828001458280411122C420
:103CD00006C62A842316B5002317C5002320050035
:103CE000232205002324050023220506232805009E
:103CF000232A0500232C0500214681451305C5050F
:103D0000EFC00FD097170000938707F75CD0971785
:103D10000000938767F91CD4971700009387A7FDCD
:103D20005CD4971700009387670000D01CD8B2407E
:103D300022444101828097050000938525F3A9A2C2
:103D4000411126C2130680069384F5FFB384C40292
:103D50004AC02E8922C406C693854407FD262A84BC
:103D600001CD2320050023222501310508C4138637
:103D700084068145EFC0CFC82285B24022449244D8
:103D80000249410182801C4DADE3411106C622C4A7
:103D900097070000938767FA1CD5938741819C435E
:103DA0002324050423260504232805046314F500B1
:103DB00085471CCD2A841D2848C02285052808C4B3
:103DC00022852D2048C448400146914501370844CA
:103DD0000546A545E53D48440946C945C53D8547D5
:103DE0001CCCB240224441018280828041119387E1
:103DF000418126C284434AC006C69C4C22C42A89FB
:103E000099E326854937938484048044DC40FD1778
:103E100063D607009C40B9CF8440C5BF0317C400D8
:103E200039E7C177850723220406232004002322D3
:103E30000400232404005CC423280400232A040073
:103E4000232C0400214681451305C405EFC04FBB58
:103E5000232A0402232C040223240404232604041A
:103E60002285B240224492440249410182801304D7
:103E7000840671BF91454A85E13588C051FDB1473F
:103E80002320F9000144E9BF797122D44AD052CCF1
:103E900056CA5AC85EC606D626D24ECE2A8AAE8AE0
:103EA000130485040149054BFD5B09ECB250225413
:103EB0004A8592540259F249624AD24A424BB24B65
:103EC00045618280044483294400FD1963D40900BC
:103ED0000040E1BF83D7C400637BFB008397E4000D
:103EE00063877701A6855285829A3369A9009384F6
:103EF0008406E1BF1971A6DAAE848395E500A2DCE1
:103F000086DE328463DC050083D7C40023A006006C
:103F100093F7070885E7930700401DA0300836C6D1
:103F2000EF005066B246E34105FE7247BD67F98F68
:103F30007977BA9793B717009CC2F1BF9307000433
:103F40001CC0F6506654D65401450961828083D75F
:103F5000C500011122CC06CE26CA4AC8898B2E8400
:103F600089CF930774041CC01CC885475CC8F24005
:103F70006244D24442490561828074003000AA84C0
:103F8000953FA2452A892685C92201ED8317C400E1
:103F900013F7072069FFF19B93E727002316F4002E
:103FA000C9B797070000938747D99CD48357C400AB
:103FB00008C008C893E707082316F400A2475CC8A6
:103FC000B24791CF8315E4002685EF00505E01C90A
:103FD0008357C400F19B93E717002316F40083571F
:103FE000C4003369F9002316240151B7B3C7A500F3
:103FF0008D8B3307C50081E78D4763EEC700AA8725
:104000006370E50A83C6050085078505A38FD7FE83
:10401000E3EAE7FE828093763500AA8791CA83C6D9
:10402000050085078505A38FD7FE93F63700FDB7FA
:104030009376C7FF138606FE63F0C70683A30500C9
:1040400083A2450083AF850003AFC50083AE0501A1
:1040500003AE450103A3850183A8C50193854502ED
:1040600023A0770003A8C5FF23A2570023A4F701CC
:1040700023A6E70123A8D70123AAC70123AC670021
:1040800023AE17019387470223AE07FF75B7904110
:104090009107910523AEC7FEE3EBD7FEE3E4E7F615
:1040A0008280DDC183A7C5FF411122C406C626C296
:1040B0001384C5FF63D307003E94AA84EF00B05A6F
:1040C000938741829C4381EF2322040023A28182B3
:1040D0002244B2402685924441016F00F058637E2D
:1040E000F40014403307D4006396E7009843DC43A0
:1040F000369718C05CC0D9BFBA87D84319C3E37DCF
:10410000E4FE94433386D700631F86001040B296C6
:1041100094C33386D700E31DC7FA10435843B296C1
:1041200094C3D8C375B76375C400B1479CC04DB77D
:104130001040B306C4006316D70014435843B29628
:1041400014C058C0C0C369B78280011126CA9384C5
:104150003500F19806CE22CC4AC84EC6A104B1471C
:1041600063F5F404B14463E4B4042A89EF00B04F6A
:104170009387418298433A8429E4938781829C43C0
:1041800099E781454A85EF00702C23A4A182A6857A
:104190004A85EF00B02BFD5963193507B14723203D
:1041A000F9004A85EF00504C29A0E3DE04FAB1473C
:1041B0001CC10145F2406244D2444249B249056102
:1041C00082801C40858F63CF0702AD4663F6F60000
:1041D0001CC03E9404C031A05C406313870223A23C
:1041E000F1824A85EF0050481305B400930744005C
:1041F00061993307F5405DDF3A94898F1CC05DBF3C
:104200005CC3C5B72287404085BF13043500719851
:10421000E30285FCB305A4404A85EF003023E31B8D
:1042200035FBADBF01114AC803A9850022CC52C499
:104230005AC006CE26CA4EC656C22E84328B368A45
:1042400063ED260983D7C50013F7074849C7044023
:104250008C495848AA8AB389B4408D44B384E40297
:104260000947B3C4E402138716004E9763F3E400D2
:10427000BA8493F70740D1C3A6855685F9352A89B4
:104280000DE5B14723A0FA008357C4007D5593E79D
:1042900007042316F400F2406244D2444249B24972
:1042A000224A924A024B056182800C484E86EFF00A
:1042B000FFD38357C40093F7F7B793E70708231694
:1042C000F4002328240144C84E99B38434412320A8
:1042D000240104C4528963732A01528908404A8622
:1042E000DA85EF00B0331C440145B38727411CC475
:1042F0001C403E992320240179BF26865685EF0075
:10430000D0362A895DFD0C485685EFF09FD995BFC0
:1043100083D7C500717126D34AD14ECF06D722D597
:1043200052CD56CB5AC95EC762C566C393F707081C
:10433000AA892E89B284B9C39C49A9E393050004D4
:1043400036C6EFF09FE02320A9002328A900B2463B
:1043500015E1B14723A0F9007D55BA502A549A546B
:104360000A59FA496A4ADA4A4A4BBA4B2A4C9A4CD9
:104370004D61828093070004232AF900930700020D
:10438000A30CF1029307000302DA230DF10236CEEB
:10439000930B5002974A0000938ACA26054C294B7A
:1043A00026848347040099C3639D7709B30C944026
:1043B000638E0C00E6862686CA854E85EFF09FE662
:1043C000FD576304F51AD256E69636DA83470400A1
:1043D000638D0718FD579304140002D002D63ED215
:1043E00002D4A301010682DC83C50400154656856C
:1043F000EF00302113841400825731E513F70701D1
:1044000009C713070002A301E10613F7870009C7D4
:104410001307B002A301E10683C604001307A0023C
:10442000638BE602B2572684814625460347040083
:1044300093051400130707FD6374E6068DC63ED688
:104440001DA00504B9BF330555413315AC00C98F14
:104450003ED0A28451BF724793064700184336CE20
:10446000634907023AD6034704009307E002631F3B
:10447000F704034714009307A002631BF702F247F7
:104480000904138747009C433ACE63C107023ED21A
:1044900035A83307E04093E727003AD63ED0E1B78E
:1044A000B387670385462E84BA9749B7FD57C5B7CA
:1044B000050402D28146814725460347040093053F
:1044C0001400130707FD6378E606F1F28345040044
:1044D0000D461745000013056513EF00901211CD2E
:1044E00097470000938787121D8D93070004B397A9
:1044F000A700025505045D8D2AD0834504001946A6
:10450000174500001305C51093041400230CB102D5
:10451000EF00300F25C597C7FFFF9387A7AE95E73C
:104520000257F2471377071009CF91073ECED257B3
:10453000D2973EDAB5B5B387670385462E84BA971E
:10454000ADBF9D07E19BA107D5B77808970600008E
:10455000938686CD4A860C104E8597000000E700B2
:104560000000FD572A8AE314F5FC8357C9007D55E6
:1045700093F70704E39307DE5255C5B3780897060F
:104580000000938666CA4A860C104E851929D1BF51
:104590001C46FD171CC663DA0700184E63C5E7000A
:1045A000A9476394F5006FF0AFBB1C422E851387BB
:1045B000170018C22380B7008280011122CC26CABE
:1045C0004AC84EC652C406CE2A89AE893284B30484
:1045D000D6007D5A63149400014509A88345040060
:1045E0004E864A8575370504E31645FFF24062445E
:1045F000D2444249B249224A05618280357122CDB6
:1046000026CB4AC94EC706CF52C556C35AC1DEDEB5
:10461000E2DCE6DAAA89AE843289368409C51C4D0B
:1046200099E3EFF04FF6974700009387A7F9639B54
:10463000F40C83A4490083D7C400A18BF5C79C4820
:10464000E5C793070002A304F1029307000302D217
:104650002305F10222C6930B5002974A0000938A69
:104660006AFA054C294B4A848347040099C3639036
:10467000770FB30C2441638D0C00E6864A86A6852D
:104680004E85253FFD576306F51E9256E69636D2B7
:1046900083470400638F071CFD571309140002C8E9
:1046A00002CE3ECA02CCA309010482D4834509008C
:1046B00015465685B92713041900C24759E913F75F
:1046C000070109C713070002A309E10413F78700D4
:1046D00009C71307B002A309E104834609001307C1
:1046E000A0026380E608F2474A84814625460347D4
:1046F000040093051400130707FD6379E60AB5CAA1
:104700003ECE85A8974700009387C7ED6395F400D8
:1047100083A489000DB7974700009387A7E8E39C1F
:10472000F4F083A4C90001BFA6854E85EFF04FAF1A
:1047300009D97D55FA406A44DA444A49BA492A4AB5
:104740009A4A0A4BF65B665CD65C0D618280050472
:1047500021BF330555413315AC00C98F3EC82289AE
:10476000B1B7324793064700184336C6634907027C
:104770003ACE034704009307E002631FF7040347A0
:1047800014009307A002631BF702B24709041387C2
:1047900047009C433AC663C107023ECA35A83307A7
:1047A000E04093E727003ACE3EC8E1B7B3876703FE
:1047B00085462E84BA9725BFFD57C5B7050402CAA2
:1047C00081468147254603470400930514001307DB
:1047D00007FD6376E606F1F2834504000D461745B2
:1047E00000001305A5E2312D11CD974700009387F6
:1047F000E7E11D8D93070004B397A7004245050428
:104800005D8D2AC88345040019461745000013052D
:1048100025E0130914002304B102E5233DC197B735
:10482000FFFF9387277E95E74247B247137707102C
:1048300009CF91073EC69257D2973ED22DB5B38786
:10484000670385462E84BA97BDBF9D07E19BA107EC
:10485000D5B7780097060000938666D626860C08A2
:104860004E8597000000E7000000FD572A8AE314F8
:10487000F5FC83D7C40093F70704E39C07EA1255BD
:1048800055BD780097060000938666D326860C08EF
:104890004E85012AD9BF797156CA9C49BA8A984572
:1048A00022D426D24ECE52CC06D64AD05AC85EC6A4
:1048B000AA892E84B284368A63D3E700BA879CC063
:1048C0000347340419C385079CC01C4093F70702B3
:1048D00081C79C4089079CC00329040013796900A3
:1048E000631A0900130B9401FD5B5C449840998F97
:1048F000634CF9041C408346340493F70702B33633
:10490000D000A5EB13063404D2854E85829AFD575C
:104910006303F5041C4011469840998B544481442C
:104920006397C700B384E64063D3040081441C440A
:1049300018486354F700998FBE94014969047D5B60
:1049400063982405014509A885465A86D2854E8577
:10495000829A631E75017D55B250225492540259B9
:10496000F249624AD24A424BB24B45618280050904
:10497000ADBF3307D40013060003A301C7040347E8
:10498000540493871600A2978906A381E7049DBF6C
:1049900085462286D2854E85829AE30E65FB0509FF
:1049A00045B7797122D426D24AD04ECE06D652CC03
:1049B00056CA5AC8B68983C68501930790063289BC
:1049C000AA842E8413863504638DF60263E2D7062B
:1049D000930780056388F61863EDD700638106228C
:1049E00093073004638EF60A930A24042301D40447
:1049F000C9A0930730066385F60A93074006E3953E
:104A0000F6FE1C40084393F6070893054500C5C60B
:104A10001C410CC363D807001307D002B307F04052
:104A2000A301E40497460000938606BF29476DA8BA
:104A3000930700076384F61663E5D7029307E00641
:104A4000638BF6189307F006E390F6FA0C401C43CC
:104A500013F80508138547006307080608C39C433D
:104A60008DA893075007E383F6FE93078007638BB7
:104A7000F61293073007E399F6F61C43D0418145BF
:104A80009386470014C383AA070056859D2E01C54F
:104A90003305554148C05C401CC8A301040471A8FB
:104AA0001C43930A2404938647009C4314C32301A8
:104AB000F4048547D5B793F607041C410CC3B9DA53
:104AC000C207C18781BF93F5050408C3C9D983D73D
:104AD00007001307F0066388E60E974600009386EA
:104AE000A6B32947A30104044C400CC463C50500C8
:104AF00008406D9908C099E3B28A91CDB28AB3F5A6
:104B0000E702FD1AB69583C505002380BA00B3D528
:104B1000E70263F0E70CA147631EF7001C40858B9A
:104B200091CB58401C4863C7E70093070003A38F4D
:104B3000FAFEFD1A3306564110C84E87CA86700029
:104B4000A2852685EFF03FD57D5A631E450B7D5526
:104B5000B250225492540259F249624AD24A424B0C
:104B600045618280A382D504974600009386C6AA39
:104B70000C40084313F805081C411105630D080299
:104B800008C313F7150001C793E505020CC04147A0
:104B9000B1FB0C4093F5F5FD0CC0A9B79C4193E720
:104BA00007029CC193078007A302F4049746000004
:104BB0009386C6A775BF13F8050408C3E30308FC72
:104BC000C207C1837DBF974600009386E6A42147B4
:104BD00011BFAE872DB794411C43CC4913F806088A
:104BE000138547006306080008C39C438CC301A8D3
:104BF00008C393F606049C43F5DA2390B7002328F4
:104C00000400B28A1DBF14485686CA85268582993B
:104C1000E30F45F31C40898B8DE7B2474844E359C5
:104C2000F5F23E8535B785465686CA852685829932
:104C3000E30F65F1050A5C443247998FE345FAFEBC
:104C4000E9BF014A930A94017D5BF5B7411122C483
:104C50002A842E8523A801C206C6D524FD576317D2
:104C6000F500938701C39C4391C31CC0B24022440A
:104C700041018280411122C42E848395E50006C63D
:104C80008924634905007C48AA977CC8B240224425
:104C9000410182808357C4007D777D17F98F2316E9
:104CA000F400EDB783D7C500011122CC26CA4AC84B
:104CB0004EC606CE93F70710AA842E843289B68991
:104CC00091C78395E5008946014631228357C40088
:104CD0007D777D17F98F2316F4008315E400624475
:104CE000F240CE864A86B24942492685D2440561C1
:104CF0003DA8411122C42E848395E50006C6E12813
:104D0000FD570357C400631BF500FD77FD17F98FAE
:104D10002316F400B2402244410182808567D98F76
:104D20002316F40068C8FDB78395E50005A8411176
:104D300022C42A842E85B285368623A801C206C6DF
:104D4000EFD0FFABFD576317F500938701C39C437A
:104D500091C31CC0B240224441018280411122C44F
:104D60002A842E8523A801C206C6612AFD5763172F
:104D7000F500938701C39C4391C31CC0B2402244F9
:104D800041018280411122C42A842E85B28523A844
:104D900001C206C6AD2AFD576317F500938701C30C
:104DA0009C4391C31CC0B240224441018280411106
:104DB00022C42A842E8523A801C206C6B92AFD571B
:104DC0006317F500938701C39C4391C31CC0B24095
:104DD000224441018280411122C42A842E85B28559
:104DE000368623A801C206C63D2AFD576317F50083
:104DF000938701C39C4391C31CC0B240224441012C
:104E0000828093F5F50F2A966314C50001458280D0
:104E100083470500E38DB7FE0505FDB763F3A504E1
:104E2000B386C500637FD5029345F6FF8147FD1722
:104E30006393F50082803387F600034807003387C9
:104E4000C7002A9723000701DDB73387F5008346A3
:104E500007003307F50085072300D700E317F6FEA8
:104E600082808147E5BF8280828081E5B2856FF0D4
:104E7000CFAD011122CC06CE26CA4AC84EC6328416
:104E800001EEEFF00FA20149F24062444A85D2449C
:104E90004249B24905618280AE84AA89892826895F
:104EA000E37485FEA2854E85EFF02FAA2A8969DD7D
:104EB000A6852286EFF08F93A6854E85EFF06F9E34
:104EC000E1B7411122C42A842E85B285368623A8F3
:104ED00001C206C6B928FD576317F500938701C3C1
:104EE0009C4391C31CC0B24022444101828083A7ED
:104EF000C5FF1385C7FF63D50700AA959C413E9562
:104F000082809307800523A8F1C27D558280930794
:104F1000800523A8F1C27D5582809307800523A8D0
:104F2000F1C2014582809307800523A8F1C27D5517
:104F300082809307800523A8F1C27D5582809387E4
:104F4000C1829C4391C73E9523A6A1823E85828063
:104F5000938741C33E9523A6A1823E8582800000AF
:104F60000000000000000000000000000000000041
:104F70000000000000000000000000000000000031
:104F80000000000000000000000000000000000021
:104F90000000000000000000000000000000000011
:1053600000000000000059400000803F00000000E5
:105370000000000000006940000000000000B03E96
:105380000000000000004940000000000000000094
:1053900000000000000000000000001010101010BD
:1053A000100000101000000000000028282828002D
:1053B00000000000000000000000001212167F2410
:1053C00024FE284848000000000008083E494868BC
:1053D0003E0B09493E080800000000609090620CF6
:1053E00030460909060000000000001C2020303073
:1053F000494545623D0000000000001010101000FB
:10540000000000000000000000000C080810101050
:1054100010101008080400000000301010080808E0
:10542000080808101030000000000008493E1C6BFE
:105430000800000000000000000000000010101034
:10544000FE1010100000000000000000000000002E
:1054500000000018181020000000000000000000EC
:105460000038000000000000000000000000000004
:1054700000000018180000000000000204040408E6
:1054800008101020202040000000001C224141494B
:10549000414141221C0000000000001828080808B3
:1054A000080808083E0000000000003E4301010219
:1054B000060C10207F0000000000003E4101031C8C
:1054C000030101433E000000000000060A1A1222F8
:1054D000427F0202020000000000007E40407C4249
:1054E000010101423C0000000000001E3160405EEE
:1054F000634141231E0000000000007F03020404FA
:1055000008081010200000000000003E4141413E0C
:10551000634141633E0000000000003C6241416382
:105520003D0103463C000000000000000000181888
:10553000000000181800000000000000000018180B
:1055400000000018181020000000000000010E38B4
:1055500040380E01000000000000000000007F0045
:10556000007F000000000000000000000040380E36
:10557000010E3840000000000000003844040C1800
:1055800010100010100000000000001E33214749D9
:105590004949494720300E00000000081414141433
:1055A000223E2241410000000000007E4141417E38
:1055B000434141437E0000000000001E2140404066
:1055C000404040211E0000000000007C424141415B
:1055D000414141427C0000000000007F4040407F8C
:1055E000404040407F0000000000007F4040407F7E
:1055F00040404040400000000000001E214040406C
:10560000434141211E000000000000414141417F13
:1056100041414141410000000000007C1010101089
:10562000101010107C0000000000001C0404040492
:105630000404044438000000000000424448507054
:10564000784844464200000000000040404040408E
:10565000404040407F000000000000636355555506
:105660004941414141000000000000616151514940
:1056700049454543430000000000001C22414141D0
:10568000414141221C0000000000007E4341414393
:105690007E404040400000000000001C224141418B
:1056A000414141221E0602000000007E4341414369
:1056B0007C424141400000000000001E614040303B
:1056C0000E0101433E000000000000FE101010100B
:1056D0001010101010000000000000414141414135
:1056E000414141633E00000000000041412222226E
:1056F00014141414080000000000008181815A5A1B
:105700005A66666666000000000000412214140814
:105710001414222241000000000000824444283872
:1057200010101010100000000000007F0302040899
:10573000081020607F00000000001C1010101010E6
:1057400010101010101C000000000040202020103D
:1057500010080804040402000000380808080808BB
:105760000808080808380000000000102844C60097
:105770000000000000000000000000000000000029
:1057800000000000000000FF0030100800000000D2
:10579000000000000000000000000000001C2202C9
:1057A0003E4242463A00000000004040407C6442D5
:1057B000424242645C00000000000000001C2240E5
:1057C000404040221C00000000000202023E26422F
:1057D000424242263A00000000000000003C2642FF
:1057E0007E4040221C00000000000C10107C1010B5
:1057F000101010101000000000000000003A2642B7
:10580000424242263A02221C00004040405C624272
:10581000424242424200000000001010007010108E
:10582000101010107C000000000008080038080864
:105830000808080808080870000040404044485024
:105840007048484442000000000070101010101012
:10585000101010100E00000000000000007E4949EA
:10586000494949494900000000000000005C6242CB
:10587000424242424200000000000000003C6642FA
:10588000424242663C00000000000000005C6442AE
:10589000424242647C40404000000000003A264200
:1058A000424242263A02020200000000003C32203E
:1058B000202020202000000000000000003C42408A
:1058C000700E02423C00000000000010107E10101C
:1058D000101010100E0000000000000000424242B4
:1058E000424242463A0000000000000000424224CA
:1058F0002424181818000000000000000081815ABC
:105900005A5A5A24240000000000000000422418C3
:105910001818242442000000000000000042222445
:10592000241418180808103000000000007E02043B
:10593000081020407E00000000000C101010101015
:105940006010101010100C0000001010101010103B
:105950001010101010101010000060101010101017
:105960000C1010101010600000000000000000007B
:105970000000000000000000000000000000000027
:105980000000000000000000000000000000000017
:105990000000000000000000000000000000000007
:1059A00006000600060006000600060006000600C7
:1059B00006000600000000000600060006000000C9
:1059C00000000000000000000000000000000000D7
:1059D0001980198019801980198019800000000031
:1059E00000000000000000000000000000000000B7
:1059F00000000000000000000000000000000000A7
:105A0000066004400CC00CC07FF07FF00880198055
:105A10001980FFE0FFE03300330022002200000085
:105A20000000000000000000000000000000020074
:105A300002000F801FC03A40320032003A001F00BF
:105A400007C002E00260026022E03FC01F80020047
:105A50000200020000000000000000000000000042
:105A600078004800CC00CC00CC00484079C00E0043
:105A700073C00240066006600660024003C000007A
:105A80000000000000000000000000000000000016
:105A90000F801F801800180018000C001E00363000
:105AA000633063B061A060E030C03F600E70000002
:105AB00000000000000000000000000000000000E6
:105AC00006000600060006000600060000000000B2
:105AD00000000000000000000000000000000000C6
:105AE00000000000000000000000000000000100B5
:105AF000020002000600060004000C000C000C006E
:105B00000C000C000C000C00040006000600020053
:105B1000020001000000000000000000000008007A
:105B20000400040006000600020003000300030056
:105B30000300030003000300020006000600040047
:105B40000400080000000000000000000000000049
:105B500004000400444035800E000E0035804440AF
:105B6000040004000000000000000000000000002D
:105B70000000000000000000000000000000000025
:105B800000000000060006000600060006007FE098
:105B90007FE0060006000600060006000000000088
:105BA00000000000000000000000000000000000F5
:105BB00000000000000000000000000000000000E5
:105BC00000000000000000000600060006000600BD
:105BD0000C000C00000000000000000000000000AD
:105BE00000000000000000000000000000000000B5
:105BF0001F001F0000000000000000000000000067
:105C00000000000000000000000000000000000094
:105C10000000000000000000000000000000000084
:105C20000000000000000000060006000600000062
:105C30000000000000000000000000000000000064
:105C4000006000C000C00180018003000300060066
:105C5000060006000C000C00180018003000300090
:105C600060000000000000000000000000000000D4
:105C70001E003F80318071C060C060C066C066C0D9
:105C800060C060C060C071C031803F800E00000005
:105C90000000000000000000000000000000000004
:105CA00007001F001B0003000300030003000300A4
:105CB000030003000300030003001FE01FE00000D7
:105CC00000000000000000000000000000000000D4
:105CD0003F007F8041C000C000C000C001C0018003
:105CE000030006000C00180030007FC07FC00000D9
:105CF00000000000000000000000000000000000A4
:105D00003F007F8041C000C000C001C00F800F80F5
:105D1000018000C000C000C041C07F803F00000083
:105D20000000000000000000000000000000000073
:105D300003800380078005800D80098019803180F1
:105D4000318061807FE07FE0018001800180000080
:105D50000000000000000000000000000000000043
:105D60003F803F803000300030003F003F8021C046
:105D700000C000C000C000C041807F803E00000025
:105D80000000000000000000000000000000000013
:105D90000F001F8038803000700060006F007F802F
:105DA00071C060C060C060C031C03F801F00000093
:105DB00000000000000000000000000000000000E3
:105DC0007FC07FC0018001800180030003000300C9
:105DD0000600060006000C000C000C001800000075
:105DE00000000000000000000000000000000000B3
:105DF0001F003F8071C060C060C031801F003F80C5
:105E0000318060C060C060C071C03F801F00000072
:105E10000000000000000000000000000000000082
:105E20001F003F80718060C060C060C071C03FC013
:105E30001EC000C000C0018023803F001E00000083
:105E40000000000000000000000000000000000052
:105E50000000000000000000060006000600000030
:105E60000000000000000000060006000600000020
:105E70000000000000000000000000000000000022
:105E80000000000000000000060006000600000000
:105E900000000000000000000600060006000600EA
